:100000000C9434000C943E000C943E000C943E0082
:100010000C943E000C943E000C943E000C943E0068
:100020000C943E000C943E000C943E000C943E0058
:100030000C943E000C943E000C943E000C943E0048
:100040000C943E000C943E000C943E000C943E0038
:100050000C943E000C943E000C943E000C943E0028
:100060000C943E000C943E0011241FBECFEFD8E04C
:10007000DEBFCDBF0E9440000C9462000C940000D3
:10008000CF93DF9300D0CDB7DEB780E091E025E0DD
:10009000FC0120831A82198205C089819A81019608
:1000A0009A83898380E091E0FC018081282F30E0F1
:1000B00089819A818217930784F30F900F90DF91C3
:0800C000CF910895F894FFCFE1
:00000001FF
